{
  "_format": "hh-sol-artifact-1",
  "contractName": "SupplyChain",
  "sourceName": "contracts/SupplyChain.sol",
  "abi": [
    {
      "anonymous": false,
      "inputs": [
        {
          "indexed": false,
          "internalType": "uint256",
          "name": "id",
          "type": "uint256"
        },
        {
          "indexed": false,
          "internalType": "string",
          "name": "name",
          "type": "string"
        },
        {
          "indexed": false,
          "internalType": "string",
          "name": "status",
          "type": "string"
        },
        {
          "indexed": false,
          "internalType": "address",
          "name": "owner",
          "type": "address"
        },
        {
          "indexed": false,
          "internalType": "string",
          "name": "ipfsHash",
          "type": "string"
        }
      ],
      "name": "ItemCreated",
      "type": "event"
    },
    {
      "anonymous": false,
      "inputs": [
        {
          "indexed": false,
          "internalType": "uint256",
          "name": "id",
          "type": "uint256"
        },
        {
          "indexed": false,
          "internalType": "string",
          "name": "status",
          "type": "string"
        }
      ],
      "name": "ItemStatusUpdated",
      "type": "event"
    },
    {
      "inputs": [
        {
          "internalType": "string",
          "name": "_name",
          "type": "string"
        },
        {
          "internalType": "string",
          "name": "_status",
          "type": "string"
        },
        {
          "internalType": "string",
          "name": "_ipfsHash",
          "type": "string"
        }
      ],
      "name": "createItem",
      "outputs": [],
      "stateMutability": "nonpayable",
      "type": "function"
    },
    {
      "inputs": [],
      "name": "itemCount",
      "outputs": [
        {
          "internalType": "uint256",
          "name": "",
          "type": "uint256"
        }
      ],
      "stateMutability": "view",
      "type": "function"
    },
    {
      "inputs": [
        {
          "internalType": "uint256",
          "name": "",
          "type": "uint256"
        }
      ],
      "name": "items",
      "outputs": [
        {
          "internalType": "uint256",
          "name": "id",
          "type": "uint256"
        },
        {
          "internalType": "string",
          "name": "name",
          "type": "string"
        },
        {
          "internalType": "string",
          "name": "status",
          "type": "string"
        },
        {
          "internalType": "address",
          "name": "owner",
          "type": "address"
        },
        {
          "internalType": "string",
          "name": "ipfsHash",
          "type": "string"
        }
      ],
      "stateMutability": "view",
      "type": "function"
    },
    {
      "inputs": [
        {
          "internalType": "uint256",
          "name": "_id",
          "type": "uint256"
        },
        {
          "internalType": "string",
          "name": "_status",
          "type": "string"
        }
      ],
      "name": "updateStatus",
      "outputs": [],
      "stateMutability": "nonpayable",
      "type": "function"
    }
  ],
  "bytecode": "0x6080604052348015600f57600080fd5b50610d528061001f6000396000f3fe608060405234801561001057600080fd5b506004361061004c5760003560e01c80636bfb0d0114610051578063876ab02b1461006f578063bfb231d21461008b578063d1b34dd8146100bf575b600080fd5b6100596100db565b6040516100669190610532565b60405180910390f35b610089600480360381019061008491906106a7565b6100e1565b005b6100a560048036038101906100a0919061077a565b610228565b6040516100b6959493929190610867565b60405180910390f35b6100d960048036038101906100d491906108cf565b610416565b005b60015481565b600160008154809291906100f49061095a565b91905055506040518060a0016040528060015481526020018481526020018381526020013373ffffffffffffffffffffffffffffffffffffffff16815260200182815250600080600154815260200190815260200160002060008201518160000155602082015181600101908161016b9190610bae565b5060408201518160020190816101819190610bae565b5060608201518160030160006101000a81548173ffffffffffffffffffffffffffffffffffffffff021916908373ffffffffffffffffffffffffffffffffffffffff16021790555060808201518160040190816101de9190610bae565b509050507f1862392b719d04f00493ba966a75db7c360a51e76f7bbdbc537bbd96fcd290386001548484338560405161021b959493929190610867565b60405180910390a1505050565b6000602052806000526040600020600091509050806000015490806001018054610251906109d1565b80601f016020809104026020016040519081016040528092919081815260200182805461027d906109d1565b80156102ca5780601f1061029f576101008083540402835291602001916102ca565b820191906000526020600020905b8154815290600101906020018083116102ad57829003601f168201915b5050505050908060020180546102df906109d1565b80601f016020809104026020016040519081016040528092919081815260200182805461030b906109d1565b80156103585780601f1061032d57610100808354040283529160200191610358565b820191906000526020600020905b81548152906001019060200180831161033b57829003601f168201915b5050505050908060030160009054906101000a900473ffffffffffffffffffffffffffffffffffffffff1690806004018054610393906109d1565b80601f01602080910402602001604051908101604052809291908181526020018280546103bf906109d1565b801561040c5780601f106103e15761010080835404028352916020019161040c565b820191906000526020600020905b8154815290600101906020018083116103ef57829003601f168201915b5050505050905085565b60008083815260200190815260200160002060030160009054906101000a900473ffffffffffffffffffffffffffffffffffffffff1673ffffffffffffffffffffffffffffffffffffffff163373ffffffffffffffffffffffffffffffffffffffff16146104b9576040517f08c379a00000000000000000000000000000000000000000000000000000000081526004016104b090610ccc565b60405180910390fd5b8060008084815260200190815260200160002060020190816104db9190610bae565b507f52e6706b1efb8b641977617cf662c4651a5f166db0bdd0c29f1ddca9950c4fe1828260405161050d929190610cec565b60405180910390a15050565b6000819050919050565b61052c81610519565b82525050565b60006020820190506105476000830184610523565b92915050565b6000604051905090565b600080fd5b600080fd5b600080fd5b600080fd5b6000601f19601f8301169050919050565b7f4e487b7100000000000000000000000000000000000000000000000000000000600052604160045260246000fd5b6105b48261056b565b810181811067ffffffffffffffff821117156105d3576105d261057c565b5b80604052505050565b60006105e661054d565b90506105f282826105ab565b919050565b600067ffffffffffffffff8211156106125761061161057c565b5b61061b8261056b565b9050602081019050919050565b82818337600083830152505050565b600061064a610645846105f7565b6105dc565b90508281526020810184848401111561066657610665610566565b5b610671848285610628565b509392505050565b600082601f83011261068e5761068d610561565b5b813561069e848260208601610637565b91505092915050565b6000806000606084860312156106c0576106bf610557565b5b600084013567ffffffffffffffff8111156106de576106dd61055c565b5b6106ea86828701610679565b935050602084013567ffffffffffffffff81111561070b5761070a61055c565b5b61071786828701610679565b925050604084013567ffffffffffffffff8111156107385761073761055c565b5b61074486828701610679565b9150509250925092565b61075781610519565b811461076257600080fd5b50565b6000813590506107748161074e565b92915050565b6000602082840312156107905761078f610557565b5b600061079e84828501610765565b91505092915050565b600081519050919050565b600082825260208201905092915050565b60005b838110156107e15780820151818401526020810190506107c6565b60008484015250505050565b60006107f8826107a7565b61080281856107b2565b93506108128185602086016107c3565b61081b8161056b565b840191505092915050565b600073ffffffffffffffffffffffffffffffffffffffff82169050919050565b600061085182610826565b9050919050565b61086181610846565b82525050565b600060a08201905061087c6000830188610523565b818103602083015261088e81876107ed565b905081810360408301526108a281866107ed565b90506108b16060830185610858565b81810360808301526108c381846107ed565b90509695505050505050565b600080604083850312156108e6576108e5610557565b5b60006108f485828601610765565b925050602083013567ffffffffffffffff8111156109155761091461055c565b5b61092185828601610679565b9150509250929050565b7f4e487b7100000000000000000000000000000000000000000000000000000000600052601160045260246000fd5b600061096582610519565b91507fffffffffffffffffffffffffffffffffffffffffffffffffffffffffffffffff82036109975761099661092b565b5b600182019050919050565b7f4e487b7100000000000000000000000000000000000000000000000000000000600052602260045260246000fd5b600060028204905060018216806109e957607f821691505b6020821081036109fc576109fb6109a2565b5b50919050565b60008190508160005260206000209050919050565b60006020601f8301049050919050565b600082821b905092915050565b600060088302610a647fffffffffffffffffffffffffffffffffffffffffffffffffffffffffffffffff82610a27565b610a6e8683610a27565b95508019841693508086168417925050509392505050565b6000819050919050565b6000610aab610aa6610aa184610519565b610a86565b610519565b9050919050565b6000819050919050565b610ac583610a90565b610ad9610ad182610ab2565b848454610a34565b825550505050565b600090565b610aee610ae1565b610af9818484610abc565b505050565b5b81811015610b1d57610b12600082610ae6565b600181019050610aff565b5050565b601f821115610b6257610b3381610a02565b610b3c84610a17565b81016020851015610b4b578190505b610b5f610b5785610a17565b830182610afe565b50505b505050565b600082821c905092915050565b6000610b8560001984600802610b67565b1980831691505092915050565b6000610b9e8383610b74565b9150826002028217905092915050565b610bb7826107a7565b67ffffffffffffffff811115610bd057610bcf61057c565b5b610bda82546109d1565b610be5828285610b21565b600060209050601f831160018114610c185760008415610c06578287015190505b610c108582610b92565b865550610c78565b601f198416610c2686610a02565b60005b82811015610c4e57848901518255600182019150602085019450602081019050610c29565b86831015610c6b5784890151610c67601f891682610b74565b8355505b6001600288020188555050505b505050505050565b7f596f7520617265206e6f7420746865206f776e65720000000000000000000000600082015250565b6000610cb66015836107b2565b9150610cc182610c80565b602082019050919050565b60006020820190508181036000830152610ce581610ca9565b9050919050565b6000604082019050610d016000830185610523565b8181036020830152610d1381846107ed565b9050939250505056fea2646970667358221220ae6e3733446c8fe86b774ff035793aaa11abb65eb8df6be3f06443e64af769d264736f6c634300081b0033",
  "linkReferences": {},
  "deployedLinkReferences": {}
}